:020000040000FA
:02000000FE2FD1
:100F32008312850183169F010730831299001130B5
:100F42008316850085120630F2001330F100AD30B1
:100F5200F000F00BAA2FF10BAA2FF20BAA2FB12F40
:100F620083168516080083128516850183169F0154
:100F72000730831299001130831685008312051CF5
:100F8200C32FC42FFB2F99270130F6000030F70042
:100F9200831205150630F5001330F400AD30F3006E
:100FA200F30BD12FF40BD12FF50BD12FD82F8312A6
:100FB20005110630F5001330F400AD30F300F30BE9
:100FC200E02FF40BE02FF50BE02FE72F0130F607AF
:100FD2000318F70A0030F7077708803AFF008030DD
:100FE2007F02031DF62F04307602031CF92FFA2F1D
:0E0FF200C92FBF2F0511BF2F00288301B42F78
:02400E00D430AC
:00000001FF
